:100000000C942A000C9447000C9447000C94470071
:100010000C9447000C9447000C9447000C94470044
:100020000C9447000C9447000C945D040C949004CD
:100030000C9447000C9447000C9447000C94470024
:100040000C9447000C9447000C9447000C94470014
:100050000C94470011241FBECFE5D8E0DEBFCDBF12
:1000600010E0A0E6B0E0E4EBF3E202C005900D92F0
:10007000AE3DB107D9F710E0AEEDB0E001C01D9282
:10008000AA3EB107E1F70E9496100C94D8110C9487
:100090000000DF93CF93CDB7DEB70E94E201ABE261
:1000A000B0E0EBE2F0E080818F7D8C93ABE2B0E0DA
:1000B000EBE2F0E080818F7E8C93ABE2B0E0EBE28C
:1000C000F0E08081877F8C93ABE2B0E0EBE2F0E080
:1000D00080818B7F8C93ABE2B0E0EBE2F0E080813B
:1000E0008D7F8C93ABE2B0E0EBE2F0E080818E7F1D
:1000F0008C938BE060E040E00E94690B8BE061E054
:1001000041E00E94690B8BE061E041E00E945F0AE0
:10011000AAE2B0E0EAE2F0E080818F778C93AAE275
:10012000B0E0EAE2F0E080818F7B8C93AAE2B0E05D
:10013000EAE2F0E080818F7D8C93AAE2B0E0EAE20F
:10014000F0E0808188608C93AAE2B0E0EAE2F0E01F
:10015000808180618C93E0E4F0E086E88083AAE20D
:10016000B0E0EAE2F0E080818B7F8C93E9E2F0E09E
:1001700083E38083CF91DF910895DF93CF9300D005
:10018000CDB7DEB78A8382E8898382E10E94870344
:1001900060EE7EE280E090E00E940B071AC0EBE286
:1001A000F0E08081829586958770882F90E081703D
:1001B0009070882371F0ECE2F0E08A818083ABE2FA
:1001C000B0E0EBE2F0E0808180648C9383E8898387
:1001D00004C08091DC00863111F782E10E94C703E0
:1001E00089810F900F90CF91DF910895DF93CF9386
:1001F00000D000D0CDB7DEB79B838A838FE8898398
:100200008A819B81009709F443C082E10E948703A1
:1002100060EE7EE280E090E00E940B0731C0EBE2EE
:10022000F0E08081881F8827881F813049F5EBE244
:10023000F0E0808182958F70882F90E081709070BF
:10024000882319F08DE8898314C0EBE2F0E0808107
:10025000869586958695882F90E08170907088238A
:1002600019F08CE8898305C0EBE2F0E0808181E938
:100270008983ECE2F0E08081EA81FB81808304C025
:100280008091DC00863159F682E10E94C70302C0EA
:1002900080E9898389810F900F900F900F90CF9103
:1002A000DF910895DF93CF9300D000D0CDB7DEB7B4
:1002B0009C838B8383E88A8319828B819C8100973E
:1002C000F9F00FC08981282F30E08B819C81FC01DF
:1002D000E20FF31F80810E94BD008A8389818F5FB6
:1002E00089838981282F30E08B819C81FC01E20F7A
:1002F000F31F8081882331F08A81833819F302C08B
:1003000082E88A838A810F900F900F900F90CF918F
:10031000DF910895DF93CF9300D000D000D0CDB708
:10032000DEB79C838B836D834E8381E98A83198238
:100330008B819C810097D1F18A818139E9F489818F
:10034000282F30E08B819C81820F931F0E94F60042
:100350008A8389818F5F89838981882F90E09C01BE
:10036000215030408B819C81FC01E20FF31F908172
:100370008E81981771F003C08FE88A830AC0898143
:10038000282F30E08D81882F90E0019728173907BA
:100390009CF28981882F90E09C01215030408B8114
:1003A0009C81FC01E20FF31F108202C080E98A8366
:1003B0008A8126960FB6F894DEBF0FBECDBFCF91CF
:1003C000DF910895DF93CF93CDB7DEB7A3E5B0E01B
:1003D000E3E5F0E080818F7B8C93A3E5B0E0E3E57B
:1003E000F0E08081877F8C93A3E5B0E0E3E5F0E067
:1003F00080818F778C93A3E5B0E0E3E5F0E0808126
:100400008F7D8C93A3E5B0E0E3E5F0E080818F7E03
:100410008C93A3E5B0E0E3E5F0E080818B7F8C93E3
:10042000A3E5B0E0E3E5F0E0808182608C93A3E592
:10043000B0E0E3E5F0E080818E7F8C93CF91DF9197
:100440000895DF93CF9300D000D0CDB7DEB78A8375
:1004500081E089838A81282F30E03C832B838B8144
:100460009C818930910509F46BC02B813C812A3035
:1004700031058CF48B819C8187309105A9F12B810A
:100480003C81283031050CF045C08B819C81863041
:100490009105A1F0ADC02B813C812B30310509F4D1
:1004A0007BC08B819C818B3091050CF45FC02B81CC
:1004B0003C812C30310509F485C09AC0A3E5B0E039
:1004C000E3E5F0E080818B7F8C93A3E5B0E0E3E58A
:1004D000F0E080818D7F8C93A3E5B0E0E3E5F0E070
:1004E000808181608C9385C0A3E5B0E0E3E5F0E016
:1004F00080818B7F8C93A3E5B0E0E3E5F0E0808121
:1005000082608C93A3E5B0E0E3E5F0E080818E7F2C
:100510008C936FC0A3E5B0E0E3E5F0E080818B7FD2
:100520008C93A3E5B0E0E3E5F0E0808182608C93FA
:10053000A3E5B0E0E3E5F0E0808181608C9359C0F1
:10054000A3E5B0E0E3E5F0E0808184608C93A3E56F
:10055000B0E0E3E5F0E080818D7F8C93A3E5B0E02F
:10056000E3E5F0E080818E7F8C9343C0A3E5B0E0AB
:10057000E3E5F0E0808184608C93A3E5B0E0E3E5FF
:10058000F0E080818D7F8C93A3E5B0E0E3E5F0E0BF
:10059000808181608C932DC0A3E5B0E0E3E5F0E0BD
:1005A000808184608C93A3E5B0E0E3E5F0E0808196
:1005B00082608C93A3E5B0E0E3E5F0E080818E7F7C
:1005C0008C9317C0A3E5B0E0E3E5F0E080818460A0
:1005D0008C93A3E5B0E0E3E5F0E0808182608C934A
:1005E000A3E5B0E0E3E5F0E0808181608C9301C099
:1005F000198289810F900F900F900F90CF91DF910A
:100600000895DF93CF93CDB7DEB7A3E5B0E0E3E580
:10061000F0E080818B7F8C93A3E5B0E0E3E5F0E030
:1006200080818D7F8C93A3E5B0E0E3E5F0E08081ED
:100630008E7F8C93CF91DF910895DF93CF9300D07D
:1006400000D0CDB7DEB78A8381E089838A81282FE5
:1006500030E03C832B838B819C818131910531F08B
:100660002B813C812231310549F010C0A8E5B0E072
:10067000E8E5F0E0808181608C9309C0A8E5B0E0F6
:10068000E8E5F0E0808182608C9301C01982898165
:100690000F900F900F900F90CF91DF910895DF93FF
:1006A000CF9300D000D000D0CDB7DEB78A837C8353
:1006B0006B8381E089838A81282F30E03E832D83FC
:1006C0008D819E818131910531F02D813E812231D4
:1006D000310549F011C0E8E5F0E080818170EB81DF
:1006E000FC8180830AC0E8E5F0E080818695817016
:1006F000EB81FC81808301C01982898126960FB627
:10070000F894DEBF0FBECDBFCF91DF910895DF9388
:10071000CF9300D000D0CDB7DEB78A8381E0898344
:100720008A81282F30E03C832B838B819C8181310F
:10073000910531F02B813C812231310581F01EC0C1
:10074000A8E5B0E0E8E5F0E0808181608C93A9E560
:10075000B0E0E9E5F0E0808181608C9310C0A8E50D
:10076000B0E0E8E5F0E0808182608C93A9E5B0E03C
:10077000E9E5F0E0808182608C9301C01982898173
:100780000F900F900F900F90CF91DF910895DF930E
:10079000CF9300D000D0CDB7DEB78A8381E08983C4
:1007A0008A81282F30E03C832B838B819C8181318F
:1007B000910531F02B813C812231310549F010C087
:1007C000A9E5B0E0E9E5F0E080818E7F8C9309C077
:1007D000A9E5B0E0E9E5F0E080818D7F8C9301C070
:1007E000198289810F900F900F900F90CF91DF9118
:1007F0000895DF93CF9300D00F92CDB7DEB78B83F0
:1008000081E08A838B8180958983E2E5F0E08981AC
:1008100080838A810F900F900F90CF91DF91089580
:10082000DF93CF9300D0CDB7DEB78A8381E0898391
:10083000ECE5F0E08A81808389810F900F90CF9161
:10084000DF910895DF93CF9300D000D000D0CDB7D3
:10085000DEB78A837C836B8381E089838B819C8173
:10086000009701F18A81282F30E03E832D838D810E
:100870009E818131910531F02D813E8122313105FA
:1008800041F00EC08B819C819093E1008093E00049
:100890000AC08B819C819093DF008093DE0003C0AF
:1008A000198201C01982898126960FB6F894DEBF9D
:1008B0000FBECDBFCF91DF9108951F920F920FB65B
:1008C0000F9211242F933F934F935F936F937F93D6
:1008D0008F939F93AF93BF93EF93FF93DF93CF9348
:1008E000CDB7DEB78091DE009091DF00009729F050
:1008F000E091DE00F091DF000995CF91DF91FF914B
:10090000EF91BF91AF919F918F917F916F915F9187
:100910004F913F912F910F900FBE0F901F90189500
:100920001F920F920FB60F9211242F933F934F9364
:100930005F936F937F938F939F93AF93BF93EF9347
:10094000FF93DF93CF93CDB7DEB78091E000909116
:10095000E100009729F0E091E000F091E1000995B5
:10096000CF91DF91FF91EF91BF91AF919F918F91C7
:100970007F916F915F914F913F912F910F900FBE9B
:100980000F901F9018950F931F93DF93CF93CDB7C0
:10099000DEB7C954D0400FB6F894DEBF0FBECDBF4E
:1009A0006B877C878D879E8783E189838091DD00BB
:1009B000833109F0C4C11A821B821C821D821E82EF
:1009C0001F821886198681E10E94C70382E10E9476
:1009D000C70387E00E94210282E10E941D038AEF83
:1009E0000E9410048FEF0E94F9033AC19E01265F16
:1009F0003F4F82E1B9010E944F038A85813009F09F
:100A00002FC182E10E941D030A810F8F1B8118A351
:100A10002C8129A33D813AA34E814BA35F815CA326
:100A200068856DA379857EA381E08FA318A619A69A
:100A30001AA61BA61CA61DA61EA69F8D0FA1900F71
:100A40009FA711E01FAB2FA53F8D231708F01FAA0A
:100A500048A158A5450F48AB61E068AF78A988A1C7
:100A6000781708F018AE9FA908A9900F99AF11E068
:100A70001AAF29AD38A9231708F01AAE48AD5AAD00
:100A8000452B48AF69AD68AB79A189A5780F79ABE3
:100A900091E09BAF09A919A1011708F01BAE28AD81
:100AA00039A9230F2CAF41E04DAF5CAD69A95617B2
:100AB00008F01DAE7BAD8DAD782B7BAF9CAD99ABB7
:100AC0000AA11AA5010F0AAB21E02EAF3AA94AA14B
:100AD000341708F01EAE5BAD6AA9560F5FAF71E028
:100AE00021967FAF21978FAD9AA9891718F021968B
:100AF0001FAE21970EAD21961FAD2197012B0EAF92
:100B00002FAD2AAB3BA14BA5340F3BAB51E0229656
:100B10005FAF22976BA97BA1671718F022961FAED3
:100B200022978EAD9BA9890F23968FAF239701E063
:100B300024960FAF249723961FAD23972BA9121746
:100B400018F024961FAE249722963FAD2297249644
:100B50004FAD2497342B22963FAF229723965FAD5B
:100B600023975BAB6CA17CA5670F6CAB81E02596EE
:100B70008FAF25979CA90CA1901718F025961FAE52
:100B8000259722961FAD22972CA9120F26961FAFEC
:100B9000269731E027963FAF279726964FAD2697A9
:100BA0005CA9451718F027961FAE279725966FADBD
:100BB000259727967FAD2797672B25966FAF2597AB
:100BC00026968FAD26978CAB9DA10DA5900F9DAB62
:100BD00011E028961FAF28972DA93DA1231718F0E3
:100BE00028961FAE289725964FAD25975DA9450FEE
:100BF00029964FAF299761E02A966FAF2A972996D9
:100C00007FAD29978DA9781718F02A961FAE2A97DD
:100C100028969FAD28972A960FAD2A97902B289655
:100C20009FAF289729961FAD29971DAB2EA13EA5F2
:100C3000230F2EAB28968FAD28974EA9840F8EAB2D
:100C40002FA538A949A95AA96BA97CA98DA99EA944
:100C50002A833B834C835D836E837F838887998758
:100C60008B859C85AD85BE85880F991FAA1FBB1FEC
:100C7000880F991FAA1FBB1F8C019D0140E050E007
:100C800060E070E00F8B188F298F3A8F4B8F5C8F4D
:100C90006D8F7E8F1A811F872B81288B3C81398B2A
:100CA0004D814A8B5E815B8B6F816C8B78857D8BF0
:100CB00089858E8B9E890E8D091708F442C01E8986
:100CC0002E8D121709F092CE3D894D8D4317C8F134
:100CD0005D896D8D561709F089CE7C898C8D8717BB
:100CE00080F19C890C8D901709F080CE1B892B8D8B
:100CF000211738F13B894B8D341709F077CE5A898B
:100D00006A8D6517F0F07A898A8D781709F06ECEB2
:100D10009989098D0917A8F01989298D121709F0E9
:100D200065CE3889488D431760F05889688D56170D
:100D300009F05CCE7F858F89871718F057CE84E144
:100D400089838981C75BDF4F0FB6F894DEBF0FBE82
:100D5000CDBFCF91DF911F910F910895DF93CF9376
:100D6000CDB7DEB72A970FB6F894DEBF0FBECDBF62
:100D70006F83788789879A8783E189838091DD00F3
:100D80008331E9F51A821B821C821D8281E10E9457
:100D9000C70382E10E94C70387E00E94210282E12B
:100DA0000E941D038AEF0E9410048FEF0E94F90336
:100DB00018C09E012A5F3F4F82E1B9010E944F0394
:100DC0008E81813071F482E10E941D038A819B81B2
:100DD000AC81BD810196A11DB11D8A839B83AC832B
:100DE000BD832A813B814C815D818F819885A98556
:100DF000BA8582179307A407B507D8F602C084E125
:100E0000898389812A960FB6F894DEBF0FBECDBFC5
:100E1000CF91DF910895DF93CF9300D000D00F9250
:100E2000CDB7DEB76A837B838C839D8383E189831F
:100E30008091DD00833109F03FC08091DC00873173
:100E4000D9F18A819B81AC81BD81880F991FAA1F2E
:100E5000BB1F880F991FAA1FBB1F9C01AD0160E03B
:100E600070E080E090E02093E2003093E300409354
:100E7000E4005093E5006093E6007093E7008093F0
:100E8000E8009093E9008AEF0E9410048FEF0E941F
:100E9000F90384E18093DD0082E10E94870327E665
:100EA00037E082E1B9010E94220487E00E9421021A
:100EB00087E18093DC0002C084E1898389810F90FF
:100EC0000F900F900F900F90CF91DF910895DF93C7
:100ED000CF93CDB7DEB7AB970FB6F894DEBF0FBE9A
:100EE000CDBF8091DD00843109F017C12091E2006F
:100EF0003091E3004091E4005091E5006091E600FC
:100F00007091E7008091E8009091E900E22FE32BD7
:100F1000E42BE52BE62BE72BE82BE92BEE2309F45A
:100F2000FCC08091E20089839091E3009A838091D4
:100F3000E4008B839091E5009C838091E6008D8393
:100F40009091E7009E838091E8008F839091E90063
:100F500098878FEF89879FEF9A878FEF8B879FEF17
:100F60009C878FEF8D879FEF9E878FEF8F879FEFF7
:100F7000988B89819985890F898B81E0898F9989DF
:100F80008981981708F0198E9A818A85980F9A8B13
:100F900091E09A8F8A899A81891708F01A8E898D33
:100FA0009A89890F8B8F81E08C8F9B8D8A89981706
:100FB00008F01C8E9A8D8C8D982B9A8F9B8D9A8B16
:100FC0008B819B85890F8B8B81E08D8F9B898B819A
:100FD000981708F01D8E9A8D8B89980F9E8F91E03F
:100FE0009F8F8E8D9B89891708F01F8E8D8D9F8D09
:100FF000892B8D8F8E8D8B8B9C818C85980F9C8BF4
:1010000091E098A38C899C81891708F018A28D8D96
:101010009C89890F89A381E08AA399A18C8998175B
:1010200008F01AA298A18AA1982B98A399A19C8B49
:101030008D819D85890F8D8B81E08BA39D898D810D
:10104000981708F01BA298A18D89980F9CA391E096
:101050009DA38CA19D89891708F01DA28BA19DA13C
:10106000892B8BA38CA18D8B9E818E85980F9E8B57
:1010700091E09EA38E899E81891708F01EA28BA104
:101080009E89890F8FA381E088A79FA18E899817D9
:1010900008F018A69EA188A5982B9EA39FA19E8BC1
:1010A0008F819F85890F8F8B81E089A79F898F8191
:1010B000981708F019A69EA18F89980F9AA791E01A
:1010C0009BA78AA59F89891708F01BA689A59BA5C0
:1010D000892B89A78AA58F8B98858889980F988FE7
:1010E00089A5988D890F888F29893A894B895C89D0
:1010F0006D897E898F89988D2093E2003093E3007B
:101100004093E4005093E5006093E6007093E7009D
:101110008093E8009093E90006C083E18093DD00AE
:1011200086E18093DC00AB960FB6F894DEBF0FBE6D
:10113000CDBFCF91DF910895DF93CF93CDB7DEB7C9
:10114000E0E2F0E080E78083A1E2B0E0E1E2F0E0FD
:1011500080818D7F8C93A1E2B0E0E1E2F0E08081BC
:101160008E7F8C93E6E5F0E084E48083CF91DF917D
:101170000895DF93CF930F92CDB7DEB78AE08983CE
:10118000E6E5F0E084EE8083E6E5F0E08081881F0C
:101190008827881F8130C1F7E1E2F0E08081882F45
:1011A00090E0887F90708830910511F48BE08983FE
:1011B00089810F90CF91DF910895DF93CF930F92A4
:1011C000CDB7DEB78AE08983E6E5F0E084EE808380
:1011D000E6E5F0E08081881F8827881F8130C1F70D
:1011E000E1E2F0E08081882F90E0887F907080318C
:1011F000910511F48BE0898389810F90CF91DF9164
:101200000895DF93CF930F92CDB7DEB78983E3E2E2
:10121000F0E08981880F8083E6E5F0E084EC80834C
:10122000E6E5F0E08081881F8827881F8130C1F7BC
:1012300013C00E94DD08E3E2F0E08981880F80831B
:10124000E6E5F0E084E88083E6E5F0E08081881F51
:101250008827881F8130C1F7E1E2F0E08081882F84
:1012600090E0887F90708831910519F70F90CF91A9
:10127000DF910895DF93CF930F92CDB7DEB78983C7
:10128000E3E2F0E08981882F90E0880F991F816068
:101290008083E6E5F0E084EC8083E6E5F0E08081A1
:1012A000881F8827881F8130C1F717C00E94DD087A
:1012B000E3E2F0E08981882F90E0880F991F816038
:1012C0008083E6E5F0E084E88083E6E5F0E0808175
:1012D000881F8827881F8130C1F7E1E2F0E0808114
:1012E000882F90E0887F907080349105F9F60F90F8
:1012F000CF91DF910895DF93CF9300D0CDB7DEB7C4
:101300008A831982E3E2F0E08A818083E6E5F0E0F7
:1013100084EC8083E6E5F0E08081881F8827881FC1
:101320008130C1F7E1E2F0E08081882F90E0887F92
:1013300090708832910519F480E1898302C08FE0B2
:10134000898389810F900F90CF91DF910895DF936A
:10135000CF9300D000D0CDB7DEB79B838A836C8358
:1013600019828C818B3021F08C818A3009F04CC03D
:101370008A819B81009709F447C08C818B3011F5DD
:10138000E6E5F0E084EC8083E6E5F0E08081881F0C
:101390008827881F8130C1F7E1E2F0E08081882F43
:1013A00090E0887F90708035910549F48CE08983C6
:1013B000E3E2F0E08081EA81FB81808327C08DE059
:1013C000898324C0E6E5F0E084E88083E6E5F0E088
:1013D0008081881F8827881F8130C1F7E1E2F0E013
:1013E0008081882F90E0887F90708835910549F43E
:1013F0008CE08983E3E2F0E08081EA81FB818083F5
:1014000005C08DE0898302C08EE0898389810F90B9
:101410000F900F900F90CF91DF910895DF93CF93AE
:10142000CDB7DEB7E6E5F0E084E98083CF91DF91C8
:101430000895DF93CF930F92CDB7DEB78983E2E2B1
:10144000F0E08981880F8083E6E5F0E084E4808322
:101450000F90CF91DF910895DF93CF93CDB7DEB793
:10146000E6E5F0E084EC8083E6E5F0E08081881F2B
:101470008827881F8130C1F7E3E2F0E08081CF91B7
:10148000DF910895DF93CF93CDB7DEB7E1E2F0E0CF
:101490008081882F90E0887F907080369105B1F729
:1014A000E6E5F0E084EC8083E6E5F0E08081881FEB
:1014B0008827881F8130C1F7CF91DF910895DF938E
:1014C000CF9300D000D000D0CDB7DEB78A836B8336
:1014D0004C8382E089838B81883008F0EEC08A815A
:1014E000282F30E03E832D838D819E8189309105A8
:1014F00009F44AC02D813E812A30310534F48D81B2
:101500009E818830910571F0D5C02D813E812A30B1
:10151000310509F46BC08D819E818B30910509F4F2
:1015200097C0C8C08C818823A9F4ABE3B0E0EBE39B
:10153000F0E08081482F8B81282F30E081E090E01F
:10154000022E02C0880F991F0A94E2F78095842327
:101550008C93B5C08C818130A1F4ABE3B0E0EBE3B8
:10156000F0E08081482F8B81282F30E081E090E0EF
:10157000022E02C0880F991F0A94E2F7842B8C93E5
:101580009EC083E089839BC08C818823A9F4A8E353
:10159000B0E0E8E3F0E08081482F8B81282F30E035
:1015A00081E090E0022E02C0880F991F0A94E2F7B2
:1015B000809584238C9383C08C818130A1F4A8E32F
:1015C000B0E0E8E3F0E08081482F8B81282F30E005
:1015D00081E090E0022E02C0880F991F0A94E2F782
:1015E000842B8C936CC083E0898369C08C818823B1
:1015F000A9F4A5E3B0E0E5E3F0E08081482F8B811A
:10160000282F30E081E090E0022E02C0880F991F61
:101610000A94E2F7809584238C9351C08C818130A9
:10162000A1F4A5E3B0E0E5E3F0E08081482F8B81F1
:10163000282F30E081E090E0022E02C0880F991F31
:101640000A94E2F7842B8C933AC083E0898337C0F5
:101650008C818823A9F4A2E3B0E0E2E3F0E080818A
:10166000482F8B81282F30E081E090E0022E02C0CD
:10167000880F991F0A94E2F7809584238C931FC0EA
:101680008C818130A1F4A2E3B0E0E2E3F0E080815C
:10169000482F8B81282F30E081E090E0022E02C09D
:1016A000880F991F0A94E2F7842B8C9308C083E07B
:1016B000898305C083E0898302C083E089838981AF
:1016C00026960FB6F894DEBF0FBECDBFCF91DF9147
:1016D0000895DF93CF9300D000D000D0CDB7DEB710
:1016E0008A836B834C8382E089838B81883008F006
:1016F000EEC08A81282F30E03E832D838D819E812C
:101700008930910509F44AC02D813E812A30310586
:1017100034F48D819E818830910571F0D5C02D8182
:101720003E812A30310509F46BC08D819E818B305A
:10173000910509F497C0C8C08C818130A1F4AAE357
:10174000B0E0EAE3F0E08081482F8B81282F30E081
:1017500081E090E0022E02C0880F991F0A94E2F700
:10176000842B8C93B6C08C818823A9F4AAE3B0E0C3
:10177000EAE3F0E08081482F8B81282F30E081E080
:1017800090E0022E02C0880F991F0A94E2F780951C
:1017900084238C939EC083E089839BC08C8181309D
:1017A000A1F4A7E3B0E0E7E3F0E08081482F8B816C
:1017B000282F30E081E090E0022E02C0880F991FB0
:1017C0000A94E2F7842B8C9384C08C818823A9F43B
:1017D000A7E3B0E0E7E3F0E08081482F8B81282F7A
:1017E00030E081E090E0022E02C0880F991F0A9439
:1017F000E2F7809584238C936CC083E0898369C071
:101800008C818130A1F4A4E3B0E0E4E3F0E08081D6
:10181000482F8B81282F30E081E090E0022E02C01B
:10182000880F991F0A94E2F7842B8C9352C08C8105
:101830008823A9F4A4E3B0E0E4E3F0E08081482F3A
:101840008B81282F30E081E090E0022E02C0880FCB
:10185000991F0A94E2F7809584238C933AC083E021
:10186000898337C08C818130A1F4A1E3B0E0E1E34A
:10187000F0E08081482F8B81282F30E081E090E0DC
:10188000022E02C0880F991F0A94E2F7842B8C93D2
:1018900020C08C818823A9F4A1E3B0E0E1E3F0E06B
:1018A0008081482F8B81282F30E081E090E0022E4C
:1018B00002C0880F991F0A94E2F7809584238C93C5
:1018C00008C083E0898305C083E0898302C083E088
:1018D0008983898126960FB6F894DEBF0FBECDBFEF
:1018E000CF91DF910895DF93CF9300D000D00F9276
:1018F000CDB7DEB78A836B8382E089838A81282F04
:1019000030E03D832C838C819D8189309105D9F015
:101910002C813D812A30310534F48C819D818830C1
:10192000910561F01FC02C813D812A30310581F085
:101930008C819D818B30910581F014C0EBE3F0E048
:101940008B81808311C0E8E3F0E08B8180830CC041
:10195000E5E3F0E08B81808307C0E2E3F0E08B8178
:10196000808302C083E0898389810F900F900F905C
:101970000F900F90CF91DF910895DF93CF9300D018
:1019800000D00F92CDB7DEB78A836B8382E0898364
:101990008A81282F30E03D832C838C819D81893082
:1019A0009105D9F02C813D812A30310534F48C81A8
:1019B0009D818830910561F01FC02C813D812A30C6
:1019C000310581F08C819D818B30910581F014C0AF
:1019D000EAE3F0E08B81808311C0E7E3F0E08B81E4
:1019E00080830CC0E4E3F0E08B81808307C0E1E3F7
:1019F000F0E08B81808302C083E0898389810F902E
:101A00000F900F900F900F90CF91DF910895DF937B
:101A1000CF93CDB7DEB727970FB6F894DEBF0FBED2
:101A2000CDBF8A836B835D834C8382E089838B8106
:101A3000883008F074C08A81282F30E03F832E83DD
:101A40004E815F814930510559F18E819F818A30E5
:101A5000910534F42E813F812830310569F05CC056
:101A60004E815F814A30510579F18E819F818B30A3
:101A7000910509F43DC050C0E9E3F0E08081282FD2
:101A800030E08B81882F90E0A90102C055954795E1
:101A90008A95E2F7CA018170EC81FD81808341C0A3
:101AA000E6E3F0E08081282F30E08B81882F90E002
:101AB000A90102C0559547958A95E2F7CA01817040
:101AC000EC81FD8180832DC0E3E3F0E08081282F4D
:101AD00030E08B81882F90E0A90102C05595479591
:101AE0008A95E2F7CA018170EC81FD81808319C07B
:101AF000E0E3F0E08081282F30E08B81882F90E0B8
:101B0000A90102C0559547958A95E2F7CA018170EF
:101B1000EC81FD81808305C083E0898302C083E07E
:101B20008983898127960FB6F894DEBF0FBECDBF9B
:101B3000CF91DF910895DF93CF9300D000D000D0F4
:101B4000CDB7DEB78A837C836B8382E089838A8109
:101B5000282F30E03E832D838D819E818930910531
:101B6000E9F02D813E812A30310534F48D819E814A
:101B70008830910561F027C02D813E812A303105E2
:101B8000A1F08D819E818B309105B1F01CC0E9E3FD
:101B9000F0E08081EB81FC81808317C0E6E3F0E018
:101BA0008081EB81FC81808310C0E3E3F0E08081E1
:101BB000EB81FC81808309C0E0E3F0E08081EB8170
:101BC000FC81808302C083E08983898126960FB6D9
:101BD000F894DEBF0FBECDBFCF91DF910895DF93A4
:101BE000CF9300D000D00F92CDB7DEB78A836B833E
:101BF00082E089838B81883008F073C08A81282F26
:101C000030E03D832C838C819D818930910551F199
:101C10002C813D812A30310534F48C819D818830BE
:101C2000910561F05BC02C813D812A30310571F155
:101C30008C819D818B309105E9F150C0ABE3B0E020
:101C4000EBE3F0E08081482F8B81282F30E081E0AA
:101C500090E0022E02C0880F991F0A94E2F78427B1
:101C60008C9341C0A8E3B0E0E8E3F0E08081482F26
:101C70008B81282F30E081E090E0022E02C0880F97
:101C8000991F0A94E2F784278C932DC0A5E3B0E056
:101C9000E5E3F0E08081482F8B81282F30E081E060
:101CA00090E0022E02C0880F991F0A94E2F7842761
:101CB0008C9319C0A2E3B0E0E2E3F0E08081482F0A
:101CC0008B81282F30E081E090E0022E02C0880F47
:101CD000991F0A94E2F784278C9305C083E08983D7
:101CE00002C083E0898389810F900F900F900F903D
:101CF0000F90CF91DF910895DF93CF93CDB7DEB7EB
:101D0000A0E5B0E0E0E5F0E0808184608C93CF91C5
:101D1000DF910895DF93CF93CDB7DEB7A0E5B0E0B4
:101D2000E0E5F0E080818B7F8C93CF91DF91089587
:101D3000DF93CF93CDB7DEB70E949C08CF91DF91A0
:101D40000895DF93CF93CDB7DEB729970FB6F894F8
:101D5000DEBF0FBECDBF9D838C836E8358874F83BC
:101D600029871B821A8287E989838E81282F30E098
:101D70008985882F90E0820F931F803491050CF0A5
:101D80005BC08C819D8122E08030920708F054C0B6
:101D90008F819885009709F44FC00E94B90880E5AB
:101DA0000E9401098C819D819695879596958795CE
:101DB0008B838B810E947B098C819D8190E4899F1C
:101DC000902D88271124892F99278B839E818B81C1
:101DD000892B8E838E810E947B091A8226C08A817C
:101DE000282F30E08F819885FC01E20FF31F80815E
:101DF000882379F08A81282F30E08F819885FC0133
:101E0000E20FF31F80810E947B098A818F5F8A83A2
:101E10000CC08A81282F30E08F819885FC01E20F69
:101E2000F31F80810E947B0904C09A8189859817DD
:101E3000B0F20E940E0A02C086E989838981299640
:101E40000FB6F894DEBF0FBECDBFCF91DF910895DE
:101E5000DF93CF9300D000D000D0CDB7DEB79C8306
:101E60008B836D834E831A8287E989838D818034C9
:101E700060F58B819C8122E08030920730F50E94D2
:101E8000B90880E50E9401098B819C819695879510
:101E9000969587958A838A810E947B098B819C8194
:101EA00090E4899F902D88271124892F99278A8370
:101EB0009D818A81892B8D838D810E947B098E81F2
:101EC0000E947B090E940E0A02C086E989838981EB
:101ED00026960FB6F894DEBF0FBECDBFCF91DF912F
:101EE0000895DF93CF93CDB7DEB729970FB6F89457
:101EF000DEBF0FBECDBF9D838C836E8358874F831B
:101F000029871B821A8287E989838E81282F30E0F6
:101F100080E490E0AC01421B530B9A018985882F25
:101F200090E0281739070CF479C08C819D8152E02C
:101F30008030950708F072C08F819885009709F46A
:101F40006DC00E94B90880E50E9401098C819D81C5
:101F500096958795969587958B838B810E947B09B3
:101F60008C819D8190E4899F902D88271124892F51
:101F700099278B839E818B81892B8E838E810E94F2
:101F80007B090E94DD0880E50E943A091A8218C088
:101F90008A81282F30E08F819885820F931F6BE014
:101FA0000E94A7098A81282F30E08F819885FC0143
:101FB000E20FF31F8081882369F08A818F5F8A8313
:101FC0008A81282F30E08985882F90E00297281792
:101FD0003907F4F28A81282F30E08F819885820FAB
:101FE000931F6AE00E94A7090E940E0A8A81882F27
:101FF00090E09C01215030408F819885FC01E20FD8
:10200000F31F8081882361F08A81282F30E08F813F
:102010009885FC01E20FF31F108202C086E98983D4
:10202000898129960FB6F894DEBF0FBECDBFCF9140
:10203000DF910895DF93CF93CDB7DEB727970FB623
:10204000F894DEBF0FBECDBF9C838B836D835F830F
:102050004E831A8287E989838D818034B8F58B811C
:102060009C8122E08030920788F58E819F810097C5
:1020700069F10E94B90880E50E9401098B819C8169
:1020800096958795969587958A838A810E947B0984
:102090008B819C8190E4899F902D88271124892F22
:1020A00099278A839D818A81892B8D838D810E94C6
:1020B0007B090E94DD0880E50E943A098E819F819C
:1020C0006AE00E94A7090E940E0A02C086E989837D
:1020D000898127960FB6F894DEBF0FBECDBFCF9192
:1020E000DF910895DF93CF9300D00F92CDB7DEB785
:1020F0009B838A8387E989838A819B81009769F022
:102100000E94B90880E50E943A098A819B816AE0B1
:102110000E94A7090E940E0A02C086E9898389816C
:102120000F900F900F90CF91DF910895DF93CF9391
:10213000CDB7DEB7E6970FB6F894DEBF0FBECDBFC2
:102140001C821B821982AFE5B0E0EFE5F0E08081F0
:1021500080688C930E9449000E94980E80E690E06F
:102160000E945201CE0105966AE04DE00E948A016C
:102170008A838A818139B1F7CE01059626E730E05E
:10218000B9010E94CF11009749F58CE790E00E94B9
:102190005201CE0103960E941811898389818230F1
:1021A000E9F68CE790E00E945201CE01839664E14B
:1021B0004DE00E948A018A838A818139B1F78CE7D8
:1021C00090E00E9452018B819C819E012D5D3F4FCA
:1021D00060E0A90124E10E94A10EC0CFCE010596C6
:1021E00021E830E0B9010E94CF110097E1F48CE7BB
:1021F00090E00E945201CE0103960E94181189833B
:102200008981823009F0AACF8B819C819E01215F58
:102210003F4F60E0A90124E10E94710FCE010F96AB
:102220000E9452019BCF86E890E00E94520196CF17
:10223000DF93CF93CDB7DEB72A970FB6F894DEBF02
:102240000FBECDBF9A87898783E08A831982E9858B
:10225000FA85118210828CE990E00E945201CE0131
:10226000039666E04DE00E948A018A838A81813963
:10227000B1F76EC08981282F30E0CE010396FC01B2
:10228000E20FF31F8081803308F45DC08981282F1D
:1022900030E0CE010396FC01E20FF31F80818A3308
:1022A00008F051C0E985FA858081918121E08F3F56
:1022B000920708F048C089818823B1F48981282FCA
:1022C00030E0CE010396FC01E20FF31F8081882FDE
:1022D00090E0C097E985FA859183808389818F5F3B
:1022E000898382E08A8334C08981833038F5E98527
:1022F000FA85808191819C01220F331FC901880FCB
:10230000991F880F991FA901480F591F8981282FEC
:1023100030E0CE010396FC01E20FF31F8081882F8D
:1023200090E0840F951FC097E985FA85918380839B
:1023300089818F5F898382E08A830AC086EC90E07E
:102340000E94520114C086EC90E00E9452010FC01E
:102350008981282F30E0CE010396FC01E20FF31FA4
:102360008081882321F08981863008F483CFE98534
:10237000FA858081918122E08030920730F086ECEE
:1023800090E00E94520183E08A838A812A960FB6E8
:10239000F894DEBF0FBECDBFCF91DF910895FB0152
:1023A000DC018D91019080190110D9F3990B0895EA
:0423B000F894FFCFCF
:1023B4000D456E7465722052454144206F7220575A
:1023C400524954450D005752495445006F6B200D36
:1023D40000524541440057726F6E6720696E7075F4
:1023E4007420636F6D6D616E64200D00706C6561A7
:1023F400736520456E7465722070616765206E7523
:102404006D626572206C657373207468616E20352B
:102414003131200D2000496E76616C696420506171
:0E2424006765206E756D626572200D001513E0
:00000001FF
