:100000000C942A000C9434000C9434000C943400AA
:100010000C9434000C9434000C9434000C94340090
:100020000C9434000C9434000C9434000C94340080
:100030000C9434000C9434000C9434000C94340070
:100040000C9434000C9434000C9434000C94340060
:100050000C94340011241FBECFE5D8E0DEBFCDBF25
:100060000E9432060C9448060C940000DF93CF9354
:10007000CDB7DEB7E0E2F0E080E78083A1E2B0E058
:10008000E1E2F0E080818D7F8C93A1E2B0E0E1E2DB
:10009000F0E080818E7F8C93E6E5F0E084E480835D
:1000A000CF91DF910895DF93CF930F92CDB7DEB755
:1000B0008AE08983E6E5F0E084EE8083E6E5F0E01F
:1000C0008081881F8827881F8130C1F7E1E2F0E036
:1000D0008081882F90E0887F90708830910511F49E
:1000E0008BE0898389810F90CF91DF910895DF9311
:1000F000CF930F92CDB7DEB78AE08983E6E5F0E0D3
:1001000084EE8083E6E5F0E08081881F8827881FE1
:100110008130C1F7E1E2F0E08081882F90E0887FB4
:1001200090708031910511F48BE0898389810F9063
:10013000CF91DF910895DF93CF930F92CDB7DEB7C4
:100140008983E3E2F0E08981880F8083E6E5F0E0CF
:1001500084EC8083E6E5F0E08081881F8827881F93
:100160008130C1F713C00E947700E3E2F0E089819B
:10017000880F8083E6E5F0E084E88083E6E5F0E040
:100180008081881F8827881F8130C1F7E1E2F0E075
:100190008081882F90E0887F90708831910519F7D1
:1001A0000F90CF91DF910895DF93CF930F92CDB74A
:1001B000DEB78983E3E2F0E08981882F90E0880F41
:1001C000991F81608083E6E5F0E084EC8083E6E5BA
:1001D000F0E08081881F8827881F8130C1F717C011
:1001E0000E947700E3E2F0E08981882F90E0880F99
:1001F000991F81608083E6E5F0E084E88083E6E58E
:10020000F0E08081881F8827881F8130C1F7E1E2F4
:10021000F0E08081882F90E0887F90708034910595
:10022000F9F60F90CF91DF910895DF93CF9300D02F
:10023000CDB7DEB78A831982E3E2F0E08A8180835A
:10024000E6E5F0E084EC8083E6E5F0E08081881F5D
:100250008827881F8130C1F7E1E2F0E08081882F94
:1002600090E0887F90708832910519F480E189834D
:1002700002C08FE0898389810F900F90CF91DF9129
:100280000895DF93CF9300D000D0CDB7DEB79B8326
:100290008A836C8319828C818B3021F08C818A3027
:1002A00009F04CC08A819B81009709F447C08C817A
:1002B0008B3011F5E6E5F0E084EC8083E6E5F0E0D4
:1002C0008081881F8827881F8130C1F7E1E2F0E034
:1002D0008081882F90E0887F90708035910549F467
:1002E0008CE08983E3E2F0E08081EA81FB81808316
:1002F00027C08DE0898324C0E6E5F0E084E88083B0
:10030000E6E5F0E08081881F8827881F8130C1F7EB
:10031000E1E2F0E08081882F90E0887F907088355E
:10032000910549F48CE08983E3E2F0E08081EA8181
:10033000FB81808305C08DE0898302C08EE08983C4
:1003400089810F900F900F900F90CF91DF910895BA
:10035000DF93CF93CDB7DEB7E6E5F0E084E98083A5
:10036000CF91DF910895DF93CF930F92CDB7DEB792
:100370008983E2E2F0E08981880F8083E6E5F0E09E
:1003800084E480830F90CF91DF910895DF93CF9322
:10039000CDB7DEB7E6E5F0E084EC8083E6E5F0E09B
:1003A0008081881F8827881F8130C1F7E3E2F0E051
:1003B0008081CF91DF910895DF93CF93CDB7DEB7E2
:1003C000E1E2F0E08081882F90E0887F90708036B5
:1003D0009105B1F7E6E5F0E084EC8083E6E5F0E036
:1003E0008081881F8827881F8130C1F7CF91DF91D6
:1003F0000895DF93CF9300D000D000D0CDB7DEB703
:100400008A836B834C8382E089838B81883008F0F8
:10041000EEC08A81282F30E03E832D838D819E811E
:100420008930910509F44AC02D813E812A30310579
:1004300034F48D819E818830910571F0D5C02D8175
:100440003E812A30310509F46BC08D819E818B304D
:10045000910509F497C0C8C08C818823A9F4ABE347
:10046000B0E0EBE3F0E08081482F8B81282F30E073
:1004700081E090E0022E02C0880F991F0A94E2F7F3
:10048000809584238C93B5C08C818130A1F4ABE33B
:10049000B0E0EBE3F0E08081482F8B81282F30E043
:1004A00081E090E0022E02C0880F991F0A94E2F7C3
:1004B000842B8C939EC083E089839BC08C8188238E
:1004C000A9F4A8E3B0E0E8E3F0E08081482F8B8155
:1004D000282F30E081E090E0022E02C0880F991FA3
:1004E0000A94E2F7809584238C9383C08C818130B9
:1004F000A1F4A8E3B0E0E8E3F0E08081482F8B812D
:10050000282F30E081E090E0022E02C0880F991F72
:100510000A94E2F7842B8C936CC083E0898369C0D2
:100520008C818823A9F4A5E3B0E0E5E3F0E08081C5
:10053000482F8B81282F30E081E090E0022E02C00E
:10054000880F991F0A94E2F7809584238C9351C0F9
:100550008C818130A1F4A5E3B0E0E5E3F0E0808197
:10056000482F8B81282F30E081E090E0022E02C0DE
:10057000880F991F0A94E2F7842B8C933AC083E08A
:10058000898337C08C818823A9F4A2E3B0E0E2E339
:10059000F0E08081482F8B81282F30E081E090E0CF
:1005A000022E02C0880F991F0A94E2F780958423D7
:1005B0008C931FC08C818130A1F4A2E3B0E0E2E310
:1005C000F0E08081482F8B81282F30E081E090E09F
:1005D000022E02C0880F991F0A94E2F7842B8C9395
:1005E00008C083E0898305C083E0898302C083E07B
:1005F0008983898126960FB6F894DEBF0FBECDBFE2
:10060000CF91DF910895DF93CF9300D000D000D039
:10061000CDB7DEB78A836B834C8382E089838B817D
:10062000883008F0EEC08A81282F30E03E832D8389
:100630008D819E818930910509F44AC02D813E81CA
:100640002A30310534F48D819E818830910571F016
:10065000D5C02D813E812A30310509F46BC08D81D2
:100660009E818B30910509F497C0C8C08C81813080
:10067000A1F4AAE3B0E0EAE3F0E08081482F8B81A7
:10068000282F30E081E090E0022E02C0880F991FF1
:100690000A94E2F7842B8C93B6C08C818823A9F44A
:1006A000AAE3B0E0EAE3F0E08081482F8B81282FB5
:1006B00030E081E090E0022E02C0880F991F0A947A
:1006C000E2F7809584238C939EC083E089839BC04E
:1006D0008C818130A1F4A7E3B0E0E7E3F0E0808112
:1006E000482F8B81282F30E081E090E0022E02C05D
:1006F000880F991F0A94E2F7842B8C9384C08C8115
:100700008823A9F4A7E3B0E0E7E3F0E08081482F75
:100710008B81282F30E081E090E0022E02C0880F0C
:10072000991F0A94E2F7809584238C936CC083E030
:10073000898369C08C818130A1F4A4E3B0E0E4E353
:10074000F0E08081482F8B81282F30E081E090E01D
:10075000022E02C0880F991F0A94E2F7842B8C9313
:1007600052C08C818823A9F4A4E3B0E0E4E3F0E074
:100770008081482F8B81282F30E081E090E0022E8D
:1007800002C0880F991F0A94E2F7809584238C9306
:100790003AC083E0898337C08C818130A1F4A1E322
:1007A000B0E0E1E3F0E08081482F8B81282F30E03A
:1007B00081E090E0022E02C0880F991F0A94E2F7B0
:1007C000842B8C9320C08C818823A9F4A1E3B0E012
:1007D000E1E3F0E08081482F8B81282F30E081E039
:1007E00090E0022E02C0880F991F0A94E2F78095CC
:1007F00084238C9308C083E0898305C083E08983C8
:1008000002C083E08983898126960FB6F894DEBF03
:100810000FBECDBFCF91DF910895DF93CF9300D06E
:1008200000D00F92CDB7DEB78A836B8382E08983D5
:100830008A81282F30E03D832C838C819D818930F3
:100840009105D9F02C813D812A30310534F48C8119
:100850009D818830910561F01FC02C813D812A3037
:10086000310581F08C819D818B30910581F014C020
:10087000EBE3F0E08B81808311C0E8E3F0E08B8153
:1008800080830CC0E5E3F0E08B81808307C0E2E366
:10089000F0E08B81808302C083E0898389810F909F
:1008A0000F900F900F900F90CF91DF910895DF93ED
:1008B000CF9300D000D00F92CDB7DEB78A836B8381
:1008C00082E089838A81282F30E03D832C838C81CC
:1008D0009D8189309105D9F02C813D812A303105E7
:1008E00034F48C819D818830910561F01FC02C818A
:1008F0003D812A30310581F08C819D818B309105BD
:1009000081F014C0EAE3F0E08B81808311C0E7E35B
:10091000F0E08B8180830CC0E4E3F0E08B81808386
:1009200007C0E1E3F0E08B81808302C083E089832C
:1009300089810F900F900F900F900F90CF91DF91C2
:100940000895DF93CF93CDB7DEB727970FB6F8940E
:10095000DEBF0FBECDBF8A836B835D834C8382E095
:1009600089838B81883008F074C08A81282F30E019
:100970003F832E834E815F814930510559F18E812D
:100980009F818A30910534F42E813F8128303105D2
:1009900069F05CC04E815F814A30510579F18E81EA
:1009A0009F818B30910509F43DC050C0E9E3F0E030
:1009B0008081282F30E08B81882F90E0A90102C030
:1009C000559547958A95E2F7CA018170EC81FD81C2
:1009D000808341C0E6E3F0E08081282F30E08B8106
:1009E000882F90E0A90102C0559547958A95E2F7B6
:1009F000CA018170EC81FD8180832DC0E3E3F0E0CA
:100A00008081282F30E08B81882F90E0A90102C0DF
:100A1000559547958A95E2F7CA018170EC81FD8171
:100A2000808319C0E0E3F0E08081282F30E08B81E3
:100A3000882F90E0A90102C0559547958A95E2F765
:100A4000CA018170EC81FD81808305C083E08983C8
:100A500002C083E08983898127960FB6F894DEBFB0
:100A60000FBECDBFCF91DF910895DF93CF9300D01C
:100A700000D000D0CDB7DEB78A837C836B8382E061
:100A800089838A81282F30E03E832D838D819E814A
:100A900089309105E9F02D813E812A30310534F409
:100AA0008D819E818830910561F027C02D813E8126
:100AB0002A303105A1F08D819E818B309105B1F0F6
:100AC0001CC0E9E3F0E08081EB81FC81808317C0EA
:100AD000E6E3F0E08081EB81FC81808310C0E3E3FA
:100AE000F0E08081EB81FC81808309C0E0E3F0E0ED
:100AF0008081EB81FC81808302C083E089838981CE
:100B000026960FB6F894DEBF0FBECDBFCF91DF9112
:100B10000895DF93CF9300D000D00F92CDB7DEB70A
:100B20008A836B8382E089838B81883008F073C06D
:100B30008A81282F30E03D832C838C819D818930F0
:100B4000910551F12C813D812A30310534F48C819D
:100B50009D818830910561F05BC02C813D812A30F8
:100B6000310571F18C819D818B309105E9F150C087
:100B7000ABE3B0E0EBE3F0E08081482F8B81282FDE
:100B800030E081E090E0022E02C0880F991F0A94A5
:100B9000E2F784278C9341C0A8E3B0E0E8E3F0E0FB
:100BA0008081482F8B81282F30E081E090E0022E59
:100BB00002C0880F991F0A94E2F784278C932DC0F6
:100BC000A5E3B0E0E5E3F0E08081482F8B81282F9A
:100BD00030E081E090E0022E02C0880F991F0A9455
:100BE000E2F784278C9319C0A2E3B0E0E2E3F0E0DF
:100BF0008081482F8B81282F30E081E090E0022E09
:100C000002C0880F991F0A94E2F784278C9305C0CD
:100C100083E0898302C083E0898389810F900F90EC
:100C20000F900F900F90CF91DF910895DF93CF93A6
:100C3000CDB7DEB7A0E5B0E0E0E5F0E0808184600C
:100C40008C93CF91DF910895DF93CF93CDB7DEB72B
:100C5000A0E5B0E0E0E5F0E080818B7F8C93CF9160
:100C6000DF910895DF93CF930F92CDB7DEB781E583
:100C70000E94B3010E94DC010E94C601898388E0C2
:100C80006FEF0E94570488E069810E940D04FFCF36
:040C9000F894FFCF06
:00000001FF
