:100000000C942A000C9434000C9434000C943400AA
:100010000C9434000C9434000C9434000C94340090
:100020000C9434000C9434000C9434000C94340080
:100030000C9434000C9434000C9434000C94340070
:100040000C9434000C9434000C9434000C94340060
:100050000C94340011241FBECFE5D8E0DEBFCDBF25
:100060000E9460050C946C050C940000DF93CF9304
:10007000CDB7DEB7ADE2B0E0EDE2F0E080818064C4
:100080008C93ADE2B0E0EDE2F0E0808180628C9391
:10009000ADE2B0E0EDE2F0E0808180618C93A7E317
:1000A000B0E0E7E3F0E0808180688C93A7E3B0E004
:1000B000E7E3F0E080818F7B8C93A7E3B0E0E7E398
:1000C000F0E0808180628C93A7E3B0E0E7E3F0E0AA
:1000D00080818F7E8C93A8E3B0E0E8E3F0E080813C
:1000E00080618C93ADE2B0E0EDE2F0E08081877F4B
:1000F0008C93ADE2B0E0EDE2F0E0808184608C931F
:10010000ADE2B0E0EDE2F0E0808182608C93ADE2A0
:10011000B0E0EDE2F0E0808181608C93AEE2B0E08F
:10012000EEE2F0E080818E7F8C93CF91DF91089595
:10013000DF93CF930F92CDB7DEB78983EFE2F0E084
:1001400089818083EEE2F0E08081881F8827881F04
:100150008130C1F7EFE2F0E080810F90CF91DF9125
:1001600008950F931F93DF93CF9300D000D00F9289
:10017000CDB7DEB79C838B836D8319821BC08981C9
:10018000282F30E08B819C818C01020F131F8A8104
:100190000E949800F80180838981282F30E08B81AC
:1001A0009C81FC01E20FF31F8081882339F0898153
:1001B0008F5F898399818D81981708F30F900F9035
:1001C0000F900F900F90CF91DF911F910F91089595
:1001D000DF93CF9300D000D00F92CDB7DEB79C83D2
:1001E0008B836D83198227C08981282F30E08B8112
:1001F0009C81FC01E20FF31F8081882369F48981CF
:10020000282F30E08B819C81FC01E20FF31F80815D
:100210000E9498008A8313C08981282F30E08B8147
:100220009C81FC01E20FF31F80810E9498008A8369
:1002300089818F5F898399818D819817A8F20F90AA
:100240000F900F900F900F90CF91DF910895DF9353
:10025000CF9300D000D000D0CDB7DEB78A836B83B8
:100260004C8382E089838B81883008F0EEC08A81DC
:10027000282F30E03E832D838D819E81893091052A
:1002800009F44AC02D813E812A30310534F48D8134
:100290009E818830910571F0D5C02D813E812A3034
:1002A000310509F46BC08D819E818B30910509F475
:1002B00097C0C8C08C818823A9F4ABE3B0E0EBE31E
:1002C000F0E08081482F8B81282F30E081E090E0A2
:1002D000022E02C0880F991F0A94E2F780958423AA
:1002E0008C93B5C08C818130A1F4ABE3B0E0EBE33B
:1002F000F0E08081482F8B81282F30E081E090E072
:10030000022E02C0880F991F0A94E2F7842B8C9367
:100310009EC083E089839BC08C818823A9F4A8E3D5
:10032000B0E0E8E3F0E08081482F8B81282F30E0B7
:1003300081E090E0022E02C0880F991F0A94E2F734
:10034000809584238C9383C08C818130A1F4A8E3B1
:10035000B0E0E8E3F0E08081482F8B81282F30E087
:1003600081E090E0022E02C0880F991F0A94E2F704
:10037000842B8C936CC083E0898369C08C81882333
:10038000A9F4A5E3B0E0E5E3F0E08081482F8B819C
:10039000282F30E081E090E0022E02C0880F991FE4
:1003A0000A94E2F7809584238C9351C08C8181302C
:1003B000A1F4A5E3B0E0E5E3F0E08081482F8B8174
:1003C000282F30E081E090E0022E02C0880F991FB4
:1003D0000A94E2F7842B8C933AC083E0898337C078
:1003E0008C818823A9F4A2E3B0E0E2E3F0E080810D
:1003F000482F8B81282F30E081E090E0022E02C050
:10040000880F991F0A94E2F7809584238C931FC06C
:100410008C818130A1F4A2E3B0E0E2E3F0E08081DE
:10042000482F8B81282F30E081E090E0022E02C01F
:10043000880F991F0A94E2F7842B8C9308C083E0FD
:10044000898305C083E0898302C083E08983898131
:1004500026960FB6F894DEBF0FBECDBFCF91DF91C9
:100460000895DF93CF9300D000D000D0CDB7DEB792
:100470008A836B834C8382E089838B81883008F088
:10048000EEC08A81282F30E03E832D838D819E81AE
:100490008930910509F44AC02D813E812A30310509
:1004A00034F48D819E818830910571F0D5C02D8105
:1004B0003E812A30310509F46BC08D819E818B30DD
:1004C000910509F497C0C8C08C818130A1F4AAE3DA
:1004D000B0E0EAE3F0E08081482F8B81282F30E004
:1004E00081E090E0022E02C0880F991F0A94E2F783
:1004F000842B8C93B6C08C818823A9F4AAE3B0E046
:10050000EAE3F0E08081482F8B81282F30E081E002
:1005100090E0022E02C0880F991F0A94E2F780959E
:1005200084238C939EC083E089839BC08C8181301F
:10053000A1F4A7E3B0E0E7E3F0E08081482F8B81EE
:10054000282F30E081E090E0022E02C0880F991F32
:100550000A94E2F7842B8C9384C08C818823A9F4BD
:10056000A7E3B0E0E7E3F0E08081482F8B81282FFC
:1005700030E081E090E0022E02C0880F991F0A94BB
:10058000E2F7809584238C936CC083E0898369C0F3
:100590008C818130A1F4A4E3B0E0E4E3F0E0808159
:1005A000482F8B81282F30E081E090E0022E02C09E
:1005B000880F991F0A94E2F7842B8C9352C08C8188
:1005C0008823A9F4A4E3B0E0E4E3F0E08081482FBD
:1005D0008B81282F30E081E090E0022E02C0880F4E
:1005E000991F0A94E2F7809584238C933AC083E0A4
:1005F000898337C08C818130A1F4A1E3B0E0E1E3CD
:10060000F0E08081482F8B81282F30E081E090E05E
:10061000022E02C0880F991F0A94E2F7842B8C9354
:1006200020C08C818823A9F4A1E3B0E0E1E3F0E0ED
:100630008081482F8B81282F30E081E090E0022ECE
:1006400002C0880F991F0A94E2F7809584238C9347
:1006500008C083E0898305C083E0898302C083E00A
:100660008983898126960FB6F894DEBF0FBECDBF71
:10067000CF91DF910895DF93CF9300D000D00F92F8
:10068000CDB7DEB78A836B8382E089838A81282F86
:1006900030E03D832C838C819D8189309105D9F098
:1006A0002C813D812A30310534F48C819D81883044
:1006B000910561F01FC02C813D812A30310581F008
:1006C0008C819D818B30910581F014C0EBE3F0E0CB
:1006D0008B81808311C0E8E3F0E08B8180830CC0C4
:1006E000E5E3F0E08B81808307C0E2E3F0E08B81FB
:1006F000808302C083E0898389810F900F900F90DF
:100700000F900F90CF91DF910895DF93CF9300D09A
:1007100000D00F92CDB7DEB78A836B8382E08983E6
:100720008A81282F30E03D832C838C819D81893004
:100730009105D9F02C813D812A30310534F48C812A
:100740009D818830910561F01FC02C813D812A3048
:10075000310581F08C819D818B30910581F014C031
:10076000EAE3F0E08B81808311C0E7E3F0E08B8166
:1007700080830CC0E4E3F0E08B81808307C0E1E379
:10078000F0E08B81808302C083E0898389810F90B0
:100790000F900F900F900F90CF91DF910895DF93FE
:1007A000CF93CDB7DEB727970FB6F894DEBF0FBE55
:1007B000CDBF8A836B835D834C8382E089838B8189
:1007C000883008F074C08A81282F30E03F832E8360
:1007D0004E815F814930510559F18E819F818A3068
:1007E000910534F42E813F812830310569F05CC0D9
:1007F0004E815F814A30510579F18E819F818B3026
:10080000910509F43DC050C0E9E3F0E08081282F54
:1008100030E08B81882F90E0A90102C05595479563
:100820008A95E2F7CA018170EC81FD81808341C025
:10083000E6E3F0E08081282F30E08B81882F90E084
:10084000A90102C0559547958A95E2F7CA018170C2
:10085000EC81FD8180832DC0E3E3F0E08081282FCF
:1008600030E08B81882F90E0A90102C05595479513
:100870008A95E2F7CA018170EC81FD81808319C0FD
:10088000E0E3F0E08081282F30E08B81882F90E03A
:10089000A90102C0559547958A95E2F7CA01817072
:1008A000EC81FD81808305C083E0898302C083E001
:1008B0008983898127960FB6F894DEBF0FBECDBF1E
:1008C000CF91DF910895DF93CF9300D000D000D077
:1008D000CDB7DEB78A837C836B8382E089838A818C
:1008E000282F30E03E832D838D819E8189309105B4
:1008F000E9F02D813E812A30310534F48D819E81CD
:100900008830910561F027C02D813E812A30310564
:10091000A1F08D819E818B309105B1F01CC0E9E37F
:10092000F0E08081EB81FC81808317C0E6E3F0E09A
:100930008081EB81FC81808310C0E3E3F0E0808163
:10094000EB81FC81808309C0E0E3F0E08081EB81F2
:10095000FC81808302C083E08983898126960FB65B
:10096000F894DEBF0FBECDBFCF91DF910895DF9326
:10097000CF9300D000D00F92CDB7DEB78A836B83C0
:1009800082E089838B81883008F073C08A81282FA8
:1009900030E03D832C838C819D818930910551F11C
:1009A0002C813D812A30310534F48C819D81883041
:1009B000910561F05BC02C813D812A30310571F1D8
:1009C0008C819D818B309105E9F150C0ABE3B0E0A3
:1009D000EBE3F0E08081482F8B81282F30E081E02D
:1009E00090E0022E02C0880F991F0A94E2F7842734
:1009F0008C9341C0A8E3B0E0E8E3F0E08081482FA9
:100A00008B81282F30E081E090E0022E02C0880F19
:100A1000991F0A94E2F784278C932DC0A5E3B0E0D8
:100A2000E5E3F0E08081482F8B81282F30E081E0E2
:100A300090E0022E02C0880F991F0A94E2F78427E3
:100A40008C9319C0A2E3B0E0E2E3F0E08081482F8C
:100A50008B81282F30E081E090E0022E02C0880FC9
:100A6000991F0A94E2F784278C9305C083E0898359
:100A700002C083E0898389810F900F900F900F90BF
:100A80000F90CF91DF910895DF93CF93CDB7DEB76D
:100A9000A0E5B0E0E0E5F0E0808184608C93CF9148
:100AA000DF910895DF93CF93CDB7DEB7A0E5B0E037
:100AB000E0E5F0E080818B7F8C93CF91DF9108950A
:100AC000DF93CF930F92CDB7DEB70E9436008FEF42
:0C0AD0000E9498008983FFCFF894FFCFAC
:00000001FF
